:020000040000FA
:100000000C9458000C9480000C9480000C94800098
:100010000C9480000C9480000C9480000C94800060
:100020000C9480000C9480000C9480000C94800050
:100030000C9480000C9480000C9480000C94800040
:100040000C9406030C9480000C94D4020C94AE0221
:100050000C9480000C9480000C9480000C94800020
:100060000C9480000C948000000000002300260007
:10007000290004040404040404040202020202022B
:10008000030303030303010204081020408001025C
:1000900004081020010204081020000000080002DB
:1000A00001000003040700000000000000005003EE
:1000B00011241FBECFEFD8E0DEBFCDBF11E0A0E01E
:1000C000B1E0E2E1FAE002C005900D92A432B1077E
:1000D000D9F721E0A4E2B1E001C01D92A43DB2072E
:1000E000E1F710E0C8E5D0E004C02197FE010E94CE
:1000F0000105C735D107C9F70E9487030C9407058E
:100100000C940000AF92BF92CF92DF92EF92FF92D9
:100110000F931F93CF93DF936C017B018B01040F2F
:10012000151FEB015E01AE18BF08C017D10759F0CB
:100130006991D601ED91FC910190F081E02DC6010D
:100140000995892B79F7C501DF91CF911F910F9107
:10015000FF90EF90DF90CF90BF90AF900895FC019B
:10016000538D448D252F30E0842F90E0821B930B1C
:10017000541710F0CF96089501970895FC01918DC2
:10018000828D981761F0A28DAE0FBF2FB11D5D96C5
:100190008C91928D9F5F9F73928F90E008958FEF67
:1001A0009FEF0895FC01918D828D981731F0828D1B
:1001B000E80FF11D858D90E008958FEF9FEF089572
:1001C000FC01918D228D892F90E0805C9F4F821BD6
:1001D00091098F739927089581E391E00E94E000CF
:1001E00021E0892B09F420E0822F089580E090E03F
:1001F000892B29F00E94EC0081110C9400000895D5
:10020000FC01A48DA80FB92FB11DA35ABF4F2C918B
:10021000848D90E001968F739927848FA689B78982
:100220002C93A089B1898C91837080648C93938D79
:10023000848D981306C00288F389E02D80818F7D1C
:1002400080830895EF92FF920F931F93CF93DF93D4
:10025000EC0181E0888F9B8D8C8D98131AC0E88902
:10026000F989808185FF15C09FB7F894EE89FF89D1
:100270006083E889F98980818370806480839FBF6F
:1002800081E090E0DF91CF911F910F91FF90EF906F
:100290000895F62E0B8D10E00F5F1F4F0F7311277F
:1002A000E02E8C8D8E110CC00FB607FCFACFE889BA
:1002B000F989808185FFF5CFCE010E940001F1CF41
:1002C000EB8DEC0FFD2FF11DE35AFF4FF0829FB72E
:1002D000F8940B8FEA89FB8980818062CFCFCF931E
:1002E000DF93EC01888D8823B9F0AA89BB89E8895E
:1002F000F9898C9185FD03C0808186FD0DC00FB604
:1003000007FCF7CF8C9185FFF2CF808185FFEDCF81
:10031000CE010E940001E9CFDF91CF9108953FB750
:10032000F8948091290190912A01A0912B01B0911C
:100330002C0126B5A89B05C02F3F19F00196A11DE1
:10034000B11D3FBFBA2FA92F982F8827BC01CD011F
:10035000620F711D811D911D42E0660F771F881F7E
:10036000991F4A95D1F708958F929F92AF92BF92AD
:10037000CF92DF92EF92FF924B015C010E948F01BE
:100380006B017C010E948F016C197D098E099F0908
:10039000683E734081059105A8F321E0821A910817
:1003A000A108B10888EEC80E83E0D81EE11CF11C3C
:1003B00081149104A104B10429F7FF90EF90DF901C
:1003C000CF90BF90AF909F908F900895FB010190C8
:1003D0000020E9F73197AF01461B570BDC01ED9187
:1003E000FC910280F381E02D09948F929F92AF924D
:1003F000BF92EF92FF920F931F93CF93DF93CDB7EE
:10040000DEB7A1970FB6F894DEBF0FBECDBF7C015B
:10041000FA01CB0119A2223008F42AE08E010F5D07
:100420001F4F822E912CB12CA12CBF01A50194014C
:100430000E94DF04F901CA016A300CF5605DD80141
:100440006E938D01232B242B252B79F790E080E0F0
:10045000109721F0BD01C7010E94E601A1960FB6D9
:10046000F894DEBF0FBECDBFDF91CF911F910F91EA
:10047000FF90EF90BF90AF909F908F900895695C30
:10048000DECFCF92DF92EF92FF92CF93DF936B019B
:100490007C016DE281E391E00E942201EC0144279E
:1004A0005527BA014C195D096E097F092AE081E3DD
:1004B00091E00E94F5018C0F9D1FDF91CF91FF907D
:1004C000EF90DF90CF9008958F929F92AF92BF925E
:1004D000CF92DF92EF92FF920F931F93CF93DF9310
:1004E0007C01EB016C0182E0C80ED11C4701E5E004
:1004F0008E0E911C10E000E0F60141916F0150E07A
:1005000070E060E02AE0CE010E94F5015C01E88124
:10051000F9810190F081E02D6EE2CE0109958A0DFE
:100520009B1D080F191FC814D90431F7F701458125
:1005300050E070E060E02AE0CE010E94F501800FFB
:10054000911FDF91CF911F910F91FF90EF90DF905E
:10055000CF90BF90AF909F908F9008951F920F9271
:100560000FB60F9211242F933F934F935F936F9386
:100570007F938F939F93AF93BF93EF93FF9381E309
:1005800091E00E940001FF91EF91BF91AF919F9187
:100590008F917F916F915F914F913F912F910F902C
:1005A0000FBE0F901F9018951F920F920FB60F92CB
:1005B00011242F938F939F93EF93FF93E091410129
:1005C000F09142018081E0914701F091480182FD64
:1005D0001BC0908180914A018F5F8F7320914B01E6
:1005E000821741F0E0914A01F0E0EF5CFE4F958FF9
:1005F00080934A01FF91EF919F918F912F910F90DE
:100600000FBE0F901F9018958081F4CF1F920F920C
:100610000FB60F9211242F933F938F939F93AF9315
:10062000BF938091250190912601A0912701B0915F
:1006300028013091240123E0230F2D3758F501962E
:10064000A11DB11D209324018093250190932601C3
:10065000A0932701B09328018091290190912A014C
:10066000A0912B01B0912C010196A11DB11D809389
:10067000290190932A01A0932B01B0932C01BF91E3
:10068000AF919F918F913F912F910F900FBE0F903F
:100690001F90189526E8230F0296A11DB11DD2CFF9
:1006A000E1E3F1E01382128288EE93E0A0E0B0E093
:1006B00084839583A683B78384E091E091838083CC
:1006C00085EC90E09587848784EC90E09787868717
:1006D00080EC90E0918B808B81EC90E0938B828B0F
:1006E00082EC90E0958B848B86EC90E0978B868BE8
:1006F000118E128E138E148EEEECF1E086E191E0F5
:1007000091838083128213821482158208957894D3
:1007100084B5826084BD84B5816084BD85B5826006
:1007200085BD85B5816085BD80916E0081608093B7
:100730006E00109281008091810082608093810020
:100740008091810081608093810080918000816030
:10075000809380008091B10084608093B10080918B
:10076000B00081608093B00080917A0084608093B3
:100770007A0080917A00826080937A0080917A007A
:10078000816080937A0080917A00806880937A00FB
:100790001092C100E0914101F091420182E080831A
:1007A000E0913D01F0913E011082E0913F01F09116
:1007B00040018FEC808310924901E0914501F09156
:1007C000460186E08083E0914301F09144018081FD
:1007D00080618083E0914301F091440180818860D1
:1007E0008083E0914301F09144018081806880839F
:1007F000E0914301F091440180818F7D808368E125
:1008000071E081E391E00E94E60160E271E081E342
:1008100091E00E94E601C9EAD0E005E910E031E884
:10082000E32E30E0F32E20E0C22E20E0D22E90E422
:10083000B92E68E873E180E090E00E94B401109264
:10084000300110922F0180912F0190913001049777
:10085000CCF5B0927C0080917A00806480937A001D
:1008600080917A0086FDFCCF90917800809179008C
:10087000892798278927AC01092E000C660B770B76
:1008800097FF1AC0CB01BA010E94410260E271E0F9
:1008900081E391E00E94E60164EF71E080E090E086
:1008A0000E94B40180912F019091300101969093A4
:1008B000300180932F01C7CF2AE081E391E00E94AD
:1008C000F501E4CF10922E0110922D0180912D019F
:1008D00090912E0104970CF066C0FE018491F801FE
:1008E0009491F701249150E040E02223E1F0882325
:1008F00051F0833009F440C0A8F5813009F442C0BA
:10090000823009F443C0E22FF0E0EE0FFF1FE859F8
:10091000FF4FA591B4918C91982321E080E009F4D8
:1009200020E0422F582F052E000C660B770B2AE093
:1009300081E391E00E94F50160E271E081E391E0E2
:100940000E94E60164EF71E080E090E00E94B40153
:1009500080912D0190912E01019690932E0180930C
:100960002D01B4CF8730A9F08830C9F0843059F612
:10097000809180008F7D03C0809180008F7780936D
:100980008000C1CF84B58F7784BDBDCF84B58F7D06
:10099000FBCF8091B0008F778093B000B4CF80916F
:1009A000B0008F7DF9CFC114D10409F442CF0E9469
:1009B000EC00882309F43BCF0E94000034CFA1E271
:1009C0001A2EAA1BBB1BFD010DC0AA1FBB1FEE1FC9
:1009D000FF1FA217B307E407F50720F0A21BB30B14
:1009E000E40BF50B661F771F881F991F1A9469F790
:1009F00060957095809590959B01AC01BD01CF01EC
:100A00000895EE0FFF1F0590F491E02D0994F894DE
:100A1000FFCF0000000022018200AF006F01E00064
:100A2000BE00D2000000000064024F5554505554DF
:060A300053000D0A000056
:107E0000112484B714BE81FFF0D085E080938100F7
:107E100082E08093C00088E18093C10086E0809377
:107E2000C20080E18093C4008EE0C9D0259A86E02C
:107E300020E33CEF91E0309385002093840096BBD3
:107E4000B09BFECF1D9AA8958150A9F7CC24DD24C4
:107E500088248394B5E0AB2EA1E19A2EF3E0BF2EE7
:107E6000A2D0813461F49FD0082FAFD0023811F036
:107E7000013811F484E001C083E08DD089C08234E0
:107E800011F484E103C0853419F485E0A6D080C0E4
:107E9000853579F488D0E82EFF2485D0082F10E0AE
:107EA000102F00270E291F29000F111F8ED06801E7
:107EB0006FC0863521F484E090D080E0DECF843638
:107EC00009F040C070D06FD0082F6DD080E0C81688
:107ED00080E7D80618F4F601B7BEE895C0E0D1E017
:107EE00062D089930C17E1F7F0E0CF16F0E7DF06D8
:107EF00018F0F601B7BEE89568D007B600FCFDCFD4
:107F0000A601A0E0B1E02C9130E011968C91119780
:107F100090E0982F8827822B932B1296FA010C0160
:107F200087BEE89511244E5F5F4FF1E0A038BF0790
:107F300051F7F601A7BEE89507B600FCFDCF97BE46
:107F4000E89526C08437B1F42ED02DD0F82E2BD052
:107F50003CD0F601EF2C8F010F5F1F4F84911BD097
:107F6000EA94F801C1F70894C11CD11CFA94CF0C13
:107F7000D11C0EC0853739F428D08EE10CD085E9AC
:107F80000AD08FE07ACF813511F488E018D01DD067
:107F900080E101D065CF982F8091C00085FFFCCF94
:107FA0009093C60008958091C00087FFFCCF809118
:107FB000C00084FD01C0A8958091C6000895E0E648
:107FC000F0E098E1908380830895EDDF803219F02E
:107FD00088E0F5DFFFCF84E1DECF1F93182FE3DFCA
:107FE0001150E9F7F2DF1F91089580E0E8DFEE27F6
:047FF000FF270994CA
:027FFE00040479
:00000001FF
